:020000040800F2
:100000000000032075070008950600089706000801
:10001000990600089B0600089D06000800000000E5
:100020000000000000000000000000009F06000823
:10003000A106000800000000A3060008A5060008AD
:10004000C5070008C5070008C5070008C507000860
:10005000C5070008C5070008C5070008C507000850
:10006000C5070008C5070008C5070008C507000840
:10007000C5070008C5070008C5070008C507000830
:10008000C5070008C5070008C5070008C507000820
:10009000C5070008C5070008C5070008C507000810
:1000A000C5070008C5070008C5070008C507000800
:1000B000C5070008C5070008C5070008C5070008F0
:1000C000C5070008C5070008C5070008C5070008E0
:1000D000C5070008C5070008C5070008C5070008D0
:1000E000C5070008C5070008C5070008C5070008C0
:1000F000C5070008C5070008C5070008C5070008B0
:10010000C5070008C5070008C5070008C50700089F
:10011000C5070008C5070008C5070008C50700088F
:10012000C5070008C5070008C5070008C50700087F
:10013000C5070008C5070008C5070008C50700086F
:10014000C5070008C5070008C5070008C50700085F
:10015000C5070008C5070008C5070008AD06000868
:10016000C5070008C5070008C5070008C50700083F
:10017000C5070008C5070008C50700080000000003
:10018000C5070008C5070008C5070008C50700081F
:10019000C5070008C5070008C5070008C50700080F
:0C01A0000000000000000000C50700087F
:1001AC0010B5054C237833B9044B13B10448AFF3A5
:1001BC0000800123237010BD1000002000000000FF
:1001CC00941B000808B5034B1BB103490348AFF35C
:1001DC00008008BD0000000014000020941B0008E3
:1001EC0053B94AB9002908BF00281CBF4FF0FF3192
:1001FC004FF0FF3000F06AB9ADF1080C6DE904CE98
:10020C0000F006F8DDF804E0DDE9022304B07047E5
:10021C002DE9F047089D0C46002B4ED194468C4599
:10022C008646B2FA82F262D94AB1C2F120039140F9
:10023C0020FA03F30CFA02FC194300FA02FE4FEA0F
:10024C001C471FFA8CF6B1FBF7F44FEA1E4307FB71
:10025C00141143EA014304FB06F199420AD91CEB41
:10026C00030304F1FF3080F01281994240F20F81B8
:10027C00023C6344591A1FFA8EF3B1FBF7F007FBEB
:10028C00101143EA014300FB06F69E420AD91CEB0F
:10029C00030300F1FF3180F0FC809E4240F2F980B4
:1002AC00634402389B1B40EA044000211DB1D3403B
:1002BC000022C5E90032BDE8F0878B4205D90DB1AB
:1002CC00C5E9000100210846F5E7B3FA83F10029DE
:1002DC0046D1A34202D39042C0F0F080861A64EB60
:1002EC0003030120002DE6D0C5E90063E3E7002AF3
:1002FC0040F09080A1EB0C044FEA1C481FFA8CF7DD
:10030C000121B4FBF8F64FEA1E4308FB164443EAFE
:10031C00044307FB06F0984208D91CEB030306F1D3
:10032C00FF3402D2984200F2CD8026461C1A1FFAE6
:10033C008EF3B4FBF8F008FB104443EA044300FBD3
:10034C0007F79F4208D91CEB030300F1FF3402D2DC
:10035C009F4200F2B0802046DB1B40EA0640A5E736
:10036C00C1F120068B4022FA06F71F4320FA06FC47
:10037C0004FA01F343EA0C03F44000FA01F8380CD8
:10038C004FEA1349B4FBF0FE1FFA87FC00FB1E4436
:10039C0049EA04440EFB0CF9A14502FA01F20AD910
:1003AC003C190EF1FF3A80F08480A14540F2818027
:1003BC00AEF1020E3C44A4EB09041FFA83F9B4FB22
:1003CC00F0F300FB134449EA044403FB0CFCA44582
:1003DC0007D93C1903F1FF3067D2A44565D9023B1C
:1003EC003C4443EA0E40A0FB0293A4EB0C049C4259
:1003FC00CE469C4651D34ED055B1B8EB0E0364EBB0
:10040C000C0404FA06F6CB401E43CC40C5E900644C
:10041C00002150E7C2F1200320FA03F10CFA02FC90
:10042C0024FA03F394400C434FEA1C4800FA02FEF2
:10043C001FFA8CF7B3FBF8F008FB1031230C43EADE
:10044C00014300FB07F1994208D91CEB030300F1AF
:10045C00FF362CD299422AD9023863445B1AA4B2D3
:10046C00B3FBF8F108FB113344EA034401FB07F337
:10047C00A34208D91CEB040401F1FF3613D2A342AA
:10048C0011D902396444E41A41EA004139E70446BF
:10049C00F0E6084606E7C845AED2B9EB020E63EBB0
:1004AC00070C0138A8E73146EDE7034699E73046DB
:1004BC00D4E7D6467FE7634402384DE70646234629
:1004CC0008460FE7023E634430E700BF704700BFA9
:1004DC00F0B589B000240394049405940694079411
:1004EC000094214B1A6B42F040021A631A6B02F013
:1004FC0040020092009A01941A6B42F010021A63A7
:10050C001A6B02F010020192019A02941A6B42F0DB
:10051C0020021A631B6B03F020030293029B134F00
:10052C0022464FF40061384600F07AFB104D22460B
:10053C004FF48041284600F073FB4FF400630393A3
:10054C00012604960594069403A9384600F062FA35
:10055C004FF48043039304960594069403A928460C
:10056C0000F058FA09B0F0BD00380240001002400B
:10057C000014024072B6FEE700B595B0302200219F
:10058C0008A801F06FFA00230393049305930693D4
:10059C0007930193194A116C41F080511164126C4C
:1005AC0002F080520192019A029315490A6822F4D2
:1005BC00404242F480420A600A6802F440420292CD
:1005CC00029A0222089201220B9210220C920E9394
:1005DC0008A800F02BFB68B90F23039300210491AA
:1005EC0005910691079103A800F070FD20B915B094
:1005FC005DF804FBFFF7BEFFFFF7BCFF00380240BD
:10060C000070004000B587B000F0FEF8FFF7B4FFB3
:10061C00FFF75EFF00F04EF80B4B0DF1080C0FCB03
:10062C00ACE80700ACF800303223012201A90748DE
:10063C0000F0E1FF0028F7D13223012201A9034881
:10064C0000F073FFF0E700BFAC1B00082C0000208B
:10065C0082B0002100910B4B5A6C42F480425A64D8
:10066C005A6C02F480420092009A01911A6C42F08A
:10067C0080521A641B6C03F080530193019B02B0EF
:10068C00704700BF00380240FEE7FEE7FEE7FEE7DA
:10069C00FEE770477047704708B500F0CFF808BD0B
:1006AC0008B5024801F09CF808BD00BF2C000020E2
:1006BC007047000008B50A480A4B03604FF4E13359
:1006CC00436000238360C36003610C224261836139
:1006DC00C36100F0FAFE00B908BDFFF74BFFFBE762
:1006EC002C0000200014014010B588B000230393A7
:1006FC0004930593069307930268194B9A4201D011
:10070C0008B010BD0024019403F592335A6C42F0EA
:10071C0020025A645A6C02F020020192019A02944F
:10072C001A6B42F040021A631B6B03F040030293F6
:10073C00029B4FF4844303930223049303230693F5
:10074C000823079303A9074800F064F922462146C1
:10075C00472000F0D9F8472000F0E6F8D0E700BFBA
:10076C000014014000180240DFF834D0FFF7A0FF5E
:10077C000C480D490D4A002302E0D458C4500433F0
:10078C00C4188C42F9D30A4A0A4C002301E01360C6
:10079C000432A242FBD301F06DF9FFF733FF70472F
:1007AC00000003200000002010000020E81B0008BF
:1007BC001000002010020020FEE7000010B50446D7
:1007CC000E4B1A784FF47A73B3FBF2F30C4A1068A1
:1007DC00B0FBF3F000F0ACF868B90F2C01D9012094
:1007EC000AE0002221464FF0FF3000F08DF8054B57
:1007FC001C60002000E0012010BD00BF04000020A0
:10080C00000000200800002008B50B4B1A6842F4C9
:10081C0000721A601A6842F480621A601A6842F414
:10082C0080721A60032000F05DF80F20FFF7C6FFFE
:10083C00FFF70EFF002008BD003C0240034A116880
:10084C00034B1B780B441360704700BF74000020EF
:10085C0004000020014B1868704700BF7400002092
:10086C00002807DB00F01F02400901239340024AD5
:10087C0042F82030704700BF00E100E0002808DBA0
:10088C000901C9B200F1604000F5614080F8001325
:10089C00704700F00F000901C9B2014B19547047A1
:1008AC0014ED00E000B500F00700C0F1070CBCF13E
:1008BC00040F28BF4FF0040C031D062B0FD9C31EC9
:1008CC004FF0FF3E0EFA0CF021EA000199400EFAAF
:1008DC0003FE22EA0E0241EA02005DF804FB00234B
:1008EC00EEE70000074AD36823F4E0631B041B0CFB
:1008FC00000200F4E060034343F0BF6343F40033B1
:10090C00D360704700ED00E010B50446054BD86885
:10091C00C0F30220FFF7C6FF01462046FFF7AEFFEB
:10092C0010BD00BF00ED00E008B5FFF799FF08BD52
:10093C000138B0F1807F0BD24FF0E0235861054AAB
:10094C00F02182F823100020986107221A61704769
:10095C000120704700ED00E070B50446866DFFF78E
:10096C0079FF94F83530DBB2022B06D08023636517
:10097C00002384F83430012070BD054622681368CA
:10098C0023F0160313602268536923F0800353612C
:10099C00236CE3B12268136823F008031360226808
:1009AC00136823F00103136023681B6813F0010F15
:1009BC0011D0FFF74FFF431B052BF5D9202363659F
:1009CC00032084F83500002384F83430D4E7A36C7A
:1009DC00002BDFD1E3E7E26D3F239340B3600123AB
:1009EC0084F83530002084F83400C5E790F83530B1
:1009FC00DBB2022B03D08023436501207047052313
:100A0C0080F835300268136823F00103136000206E
:100A1C007047000000230F2B00F2F98030B583B033
:100A2C0069E085684FEA430E032404FA0EF425EAC4
:100A3C000405CC6804FA0EF42C438460446824EA60
:100A4C0002044A68C2F300129A402243426060E0FA
:100A5C00DC08083450F8242003F00705AD004FF0F3
:100A6C000F0E0EFA05FE22EA0E0E0A69AA4042EAA1
:100A7C000E0240F8242060E0092200E0002202FA75
:100A8C000EF22A430234624D45F82420614A9468E0
:100A9C006FEA0C0224EA0C05D1F804E01EF4801F66
:100AAC0001D04CEA04055B4CA560E46802EA04053D
:100ABC00D1F804E01EF4001F01D04CEA0405554C9B
:100ACC00E560646802EA0405D1F804E01EF4003F16
:100ADC0001D04CEA04054F4C6560246822404D68F7
:100AEC0015F4803F01D04CEA04024A4C22600133D9
:100AFC000F2B00F28A8001229A400C6804EA020C47
:100B0C0032EA0404F3D14C6804F00304013C012CD8
:100B1C0087D94A6802F00302032A09D0C4685D0031
:100B2C000322AA4024EA02048A68AA402243C26033
:100B3C004A6802F00302022A8AD004684FEA430E84
:100B4C00032202FA0EF224EA02044A6802F00302BB
:100B5C0002FA0EF2224302604A6812F4403FC6D0F9
:100B6C00002201922C4A546C44F480445464526C1C
:100B7C0002F480420192019A9C08A51C244A52F866
:100B8C00255003F0030E4FEA8E0E0F2202FA0EF2DE
:100B9C0025EA0205214A90423FF470AF02F58062CB
:100BAC00904222D002F58062904220D002F5806201
:100BBC0090421ED002F5806290421CD002F58062F9
:100BCC0090421AD002F58062904218D002F58062F1
:100BDC00904216D002F58062904214D002F58062E9
:100BEC0090423FF449AF0A2249E7012247E702222B
:100BFC0045E7032243E7042241E705223FE70622AB
:100C0C003DE707223BE7082239E703B030BD7047C8
:100C1C0000380140003C0140003802400000024016
:100C2C000AB181617047090481617047002800F0A6
:100C3C00E08170B582B00446036813F0010F3BD01D
:100C4C009F4B9B6803F00C03042B2CD09C4B9B6894
:100C5C0003F00C03082B21D06368B3F5803F4FD011
:100C6C00B3F5A02F52D0964B1A6822F480321A603A
:100C7C001A6822F480221A606368002B50D0FFF7A8
:100C8C00E9FD05468E4B1B6813F4003F14D1FFF7AA
:100C9C00E1FD401B6428F5D90320B1E1884B5B686A
:100CAC0013F4800FD8D0864B1B6813F4003F03D08D
:100CBC006368002B00F09F81236813F0020F54D05F
:100CCC007F4B9B6813F00C0F3ED07D4B9B6803F061
:100CDC000C03082B33D0E368002B68D0794B01222E
:100CEC001A60FFF7B7FD0546754B1B6813F0020F32
:100CFC0054D1FFF7AFFD401B0228F5D903207FE14B
:100D0C006F4A136843F480331360B5E76C4B1A6871
:100D1C0042F480221A601A6842F480321A60ABE7FF
:100D2C00FFF798FD0546664B1B6813F4003FC3D0D4
:100D3C00FFF790FD401B6428F5D9032060E1604B60
:100D4C005B6813F4800FC6D15D4B1B6813F0020F68
:100D5C0003D0E368012B40F05081594A136823F00B
:100D6C00F803216943EAC1031360236813F0080FE9
:100D7C0042D063696BB3534B0122C3F8802EFFF74B
:100D8C0069FD05464E4B5B6F13F0020F34D1FFF734
:100D9C0061FD401B0228F5D9032031E1484A136854
:100DAC0023F0F803216943EAC1031360DDE7454BE7
:100DBC0000221A60FFF74EFD0546414B1B6813F0ED
:100DCC00020FD2D0FFF746FD401B0228F5D90320B5
:100DDC0016E13C4B0022C3F8802EFFF73BFD054685
:100DEC00374B5B6F13F0020F06D0FFF733FD401B40
:100DFC000228F5D9032003E1236813F0040F77D000
:100E0C002F4B1B6C13F0805F33D1002301932C4BC1
:100E1C001A6C42F080521A641B6C03F080530193DD
:100E2C00019B0125284B1B6813F4807F23D0A368FA
:100E3C00012B34D0052B38D0214B1A6F22F0010234
:100E4C001A671A6F22F004021A67A368002B3DD0B0
:100E5C00FFF700FD06461A4B1B6F13F0020F46D12D
:100E6C00FFF7F8FC801B41F288339842F3D903203A
:100E7C00C6E00025D6E7144A136843F48073136068
:100E8C00FFF7E8FC0646104B1B6813F4807FCED1AD
:100E9C00FFF7E0FC801B0228F5D90320B0E0084ADC
:100EAC00136F43F001031367CFE7054B1A6F42F042
:100EBC0004021A671A6F42F001021A67C5E700BFF5
:100ECC00003802400000474200700040FFF7C2FCAF
:100EDC000646524B1B6F13F0020F08D0FFF7BAFCFB
:100EEC00801B41F288339842F3D9032088E0EDB996
:100EFC00A369002B00F08380484A926802F00C0230
:100F0C00082A51D0022B17D0454B00221A66FFF746
:100F1C00A1FC0446414B1B6813F0007F42D0FFF745
:100F2C0099FC001B0228F5D9032069E03B4A136C9D
:100F3C0023F080531364DBE7394B00221A66FFF76A
:100F4C0089FC0546354B1B6813F0007F06D0FFF774
:100F5C0081FC401B0228F5D9032051E0E369226A89
:100F6C001343626A43EA8213A26A5208013A43EAC3
:100F7C000243E26A43EA0263284A5360284B012287
:100F8C001A66FFF767FC0446244B1B6813F0007FBE
:100F9C0006D1FFF75FFC001B0228F5D903202FE0D8
:100FAC0000202DE000202BE0012B2BD01B4B5B688D
:100FBC0003F48001E269914226D103F03F02216AD9
:100FCC008A4223D1616A47F6C0721A40B2EB811F84
:100FDC001ED103F44031A26A5208013AB1EB024F20
:100FEC0018D103F07063E26AB3EB026F14D10020E6
:100FFC0006E001207047012002E0012000E0002003
:10100C0002B070BD0120FBE70120F9E70120F7E7F2
:10101C000120F5E70120F3E70120F1E70038024059
:10102C000000474208B5264B9B6803F00C03042BC9
:10103C0041D0082B41D1224B5A6802F03F025B6829
:10104C0013F4800F12D01E4B5968C1F388111D4840
:10105C000023A1FB0001FFF7C3F8194B5B68C3F336
:10106C00014301335B00B0FBF3F027E0144B5868ED
:10107C00C0F388104FEA401CBCEB000C6EEB0E0E5C
:10108C004FEA8E1343EA9C634FEA8C11B1EB0C01CF
:10109C0063EB0E03DB0043EA5173C90011EB000C48
:1010AC0043F10003990200234FEA8C2041EA9C5142
:1010BC00FFF796F8D1E7034800E0034808BD00BFEE
:1010CC000038024040787D010024F400002800F034
:1010DC009B8070B50D4604464F4B1B6803F00F0305
:1010EC008B4208D2CBB24C4A1370136803F00F0337
:1010FC008B4240F08B80236813F0020F17D013F053
:10110C00040F04D0454A936843F4E053936023687A
:10111C0013F0080F04D0414A936843F46043936082
:10112C003E4A936823F0F003A1680B439360236855
:10113C0013F0010F32D06368012B21D09A1E012AC3
:10114C0025D9364A126812F0020F61D033498A68E9
:10115C0022F0030213438B60FFF77CFB06462F4BF8
:10116C009B6803F00C036268B3EB820F16D0FFF799
:10117C0071FB801B41F288339842F0D9032042E086
:10118C00264A126812F4003FE0D101203BE0234ACA
:10119C00126812F0007FD9D1012034E01E4B1B687D
:1011AC0003F00F03AB4207D9EAB21B4B1A701B6852
:1011BC0003F00F03AB422DD1236813F0040F06D0BC
:1011CC00164A936823F4E053E1680B439360236859
:1011DC0013F0080F07D0114A936823F46043216978
:1011EC0043EAC1039360FFF71DFF0C4B9B68C3F3ED
:1011FC0003130B4AD35CD8400A4B18600A4B18688F
:10120C00FFF7DCFA002070BD012070470120FAE7DF
:10121C000120F8E70120F6E7003C024000380240CC
:10122C00C41B00080000002008000020014B1868B7
:10123C00704700BF0000002008B5FFF7F7FF044B14
:10124C009B68C3F38223034AD35CD84008BD00BF1C
:10125C0000380240BC1B000808B5FFF7E7FF044B41
:10126C009B68C3F34233034AD35CD84008BD00BF2C
:10127C0000380240BC1B0008026802F10C0353E862
:10128C00003F23F490730C3242E800310029F3D173
:10129C00026802F1140353E8003F23F001031432F7
:1012AC0042E800310029F3D1036B012B05D0202338
:1012BC0080F84230002303637047026802F10C038C
:1012CC0053E8003F23F010030C3242E800310029B0
:1012DC00F3D1ECE790F84130DBB2212B01D00220A6
:1012EC0070478368B3F5805F17D0036A5A1C02629B
:1012FC001A7803685A60C38C9BB2013B9BB2C384BF
:10130C004BB90268D36823F08003D3600268D368BA
:10131C0043F04003D360002070470369002BE4D1F5
:10132C00036A1B880268C3F308035360036A023321
:10133C000362E0E710B504460268136923F44053D6
:10134C00C1680B431361836802691A4343691A43EA
:10135C00C3691A430168CB6823F4164323F00C03CA
:10136C001343CB600268536923F4407381690B43C8
:10137C0053610368314A934206D002F5806293426E
:10138C0002D0FFF759FF01E0FFF766FFE369B3F501
:10139C00004F29D00021031849411B1841F10001CD
:1013AC00C90041EA5371DB00181863684FEA8302E5
:1013BC004FEA937341F10001FEF712FF204AA2FBA2
:1013CC0000314909642303FB11031B013233A2FBD7
:1013DC0003235B0903F0F00202EB011203F00F038D
:1013EC00216813448B6010BD0023021843EB0301EA
:1013FC00121841F10001C90041EA5271D2001018D3
:10140C0041F10001626892185B41FEF7E9FE0C4A5B
:10141C00A2FB00314909642303FB1103DB003233C7
:10142C00A2FB03235B095A0002F4F87202EB0112CF
:10143C0003F00703216813448B60D4E700100140CC
:10144C001F85EB512DE9F04383B005460E46174638
:10145C009946DDF828802B681C6836EA04040CBF1A
:10146C0001240024BC4228D1B8F1FF3FF3D0FFF790
:10147C00F1F9A0EB0900404523D8B8F1000F22D0B8
:10148C002B68DA6812F0040FE5D0802EE3D0402EE2
:10149C00E1D01A6812F0080FDDD0002401941A680C
:1014AC0001925B680193019B2846FFF7E5FE082338
:1014BC006B6485F84040012000E0002003B0BDE8DB
:1014CC00F0830320FAE70320F8E760B310B5044675
:1014DC0090F8413013B3242384F841302268D36848
:1014EC0023F40053D3602046FFF724FF22681369CE
:1014FC0023F4904313612268536923F02A03536148
:10150C002268D36843F40053D36000206064202326
:10151C0084F8413084F84230606310BD80F840306C
:10152C00FFF7E2F8D7E7012070472DE9F04182B0D0
:10153C001E4690F84130DBB2202B56D104460D46A6
:10154C009046002955D00AB901204FE0002343648E
:10155C00212380F84130FFF77DF90746A4F8248059
:10156C00A4F82680A368B3F5805F02D04FF0000882
:10157C0014E023692BB34FF000080FE0202384F80C
:10158C004130032032E038F8023B2268C3F30803F1
:10159C005360E28C92B2013A92B2E284E38C9BB239
:1015AC0093B100963B46002280212046FFF74AFF6C
:1015BC000028E3D1002DE6D015F8012B23685A60E2
:1015CC00E7E7A8460025E9E700963B4600224021C4
:1015DC002046FFF737FF18B9202384F8413005E087
:1015EC00202384F84130032000E0022002B0BDE843
:1015FC00F0810120FAE72DE9F04182B01E4690F807
:10160C004230DBB2202B59D104460D4690460029BE
:10161C0058D00AB9012052E000234364222280F8FA
:10162C0042200363FFF716F90746A4F82C80A4F8B0
:10163C002E80A368B3F5805F02D04FF000081CE049
:10164C00236913B14FF0000817E0A846002514E0F9
:10165C00202384F84230032031E023685B68C3F315
:10166C00080328F8023B03E023685B682B70013504
:10167C00E28D92B2013A92B2E285E38D9BB2C3B194
:10168C0000963B46002220212046FFF7DBFE002877
:10169C00DED1002DE1D0A368B3F5805FE4D013B99F
:1016AC002369002BE0D023685B6803F07F032B7069
:1016BC00DDE7202384F84230002000E0022002B055
:1016CC00BDE8F0810120FAE7704708B50168CA68E7
:1016DC0022F04002CA60202280F84120FFF7F4FF7C
:1016EC00002008BD7047704708B5806B0023C38588
:1016FC00C384FFF7F8FF08BD704790F84230DBB2A7
:10170C00222B69D18368B3F5805F4FD0826AB3F521
:10171C00805F04D0002B56D10369002B53D1036892
:10172C005B681370836A01338362C38D9BB2013B88
:10173C009BB2C385002B51D100B583B00268D3682E
:10174C0023F02003D3600268D36823F48073D36042
:10175C000268536923F001035361202380F842305F
:10176C0000234363036B012B33D100230363026813
:10177C0002F10C0353E8003F23F010030C3242E853
:10178C0000310029F3D103681A6812F0100F06D04B
:10179C00002201921A6801925B680193019B818D72
:1017AC00FFF7AAFF002003B05DF804FB0269002AD2
:1017BC00ACD1826A03685B68C3F308031380836A45
:1017CC0002338362B1E703685B6803F07F03137035
:1017DC00A8E7FFF787FFE5E7022070470020704776
:1017EC0010B582B0044602681368D068516913F0D2
:1017FC000F0F09D113F0200F0CD010F0200F09D0CF
:10180C002046FFF77AFF16E011F0010115D110F414
:10181C00907F12D1216B012979D013F0800F03D066
:10182C0010F0800F40F0148113F0400F03D010F033
:10183C00400F40F0118102B010BD13F0010F06D023
:10184C0010F4807F03D0626C42F00102626413F0EA
:10185C00040F04D019B1626C42F00202626413F0FE
:10186C00020F04D019B1626C42F00402626413F0EE
:10187C00080F07D010F0200F00D119B1626C42F0A4
:10188C0008026264626C002AD5D013F0200F02D0DB
:10189C0010F0200F29D123685B6903F04003626CC0
:1018AC0012F0080F00D163B32046FFF7E5FC236864
:1018BC005B6913F0400F20D0226802F1140353E847
:1018CC00003F23F04003143242E800310029F3D1E9
:1018DC00E36B73B1624A1A65E06BFFF787F8002877
:1018EC00A9D0E06B036D9847A5E72046FFF705FFED
:1018FC00D1E72046FFF7F7FE9DE72046FFF7F3FE02
:10190C0099E72046FFF7EFFE0023636493E713F09B
:10191C00100F82D010F0100F3FF47FAF0023019313
:10192C001368019353680193019B536913F0400FA3
:10193C0052D0E26B13685B689BB2002B3FF47BAF19
:10194C00A18D99427FF677AFE385D369B3F5807F9C
:10195C0037D0226802F10C0353E8003F23F4807364
:10196C000C3242E800310029F3D1226802F1140351
:10197C0053E8003F23F00103143242E80031002900
:10198C00F3D1226802F1140353E8003F23F0400323
:10199C00143242E800310029F3D1202384F842307C
:1019AC0000232363226802F10C0353E8003F23F069
:1019BC0010030C3242E800310029F3D1E06BFEF742
:1019CC00CBFF02236363A18DE38D9BB2C91A89B24D
:1019DC002046FFF791FE2EE7A18DE38D9BB2C91A2D
:1019EC0089B2E38D9BB2002B3FF425AF00293FF465
:1019FC0022AF226802F10C0353E8003F23F49073EA
:101A0C000C3242E800300028F3D1226802F11403B2
:101A1C0053E8003F23F00103143242E80030002861
:101A2C00F3D1202384F8423000232363226802F18F
:101A3C000C0353E8003F23F010030C3242E8003053
:101A4C000028F3D1022363632046FFF755FEF2E62C
:101A5C002046FFF73FFCEEE62046FFF736FEEAE6AF
:101A6C00F516000802440346934200D1704703F870
:101A7C00011BF9E770B50D4D0D4C641BA41000262D
:101A8C00A64209D10B4D0C4C00F07EF8641BA4103F
:101A9C000026A64205D170BD55F8043B9847013687
:101AAC00EEE755F8043B98470136F2E7DC1B0008DB
:101ABC00DC1B0008DC1B0008E41B000870477047A7
:101ACC00024B13B1024800F005B87047000000004B
:101ADC00ED1A0008002301461A46184600F014B807
:101AEC0038B5074D074C641BA4101CB9BDE8384031
:101AFC0000F050B8013C55F824309847F5E700BF8A
:101B0C00E41B0008E81B00082DE9F047DFF86CA087
:101B1C000646DAF8000098460F469146FFF7CEFFCE
:101B2C00174B1C680CB9174C1C606568DAF8000080
:101B3C001F2D05DDFFF7C3FF4FF0FF30BDE8F08729
:101B4C009EB104EB85010122C1F88890D4F888314C
:101B5C00AA401343C4F88831022EC1F8088102BF91
:101B6C00D4F88C311343C4F88C316B1C0235636090
:101B7C0044F82570FFF7A3FF0020DFE70C000020DE
:101B8C007C00002080000020F8B500BFF8BC08BC29
:101B9C009E467047F8B500BFF8BC08BC9E4670471F
:101BAC0048656C6C6F20576F726C642120000000CC
:101BBC00000000000102030400000000000000000F
:081BCC000102030406070809E9
:081BD40048E6FF7F010000005C
:081BDC00CD1A0008D101000838
:041BE400AD01000847
:101BE8000024F4000100000010000000780000202C
:040000050800077573
:00000001FF
